:020000040800F2
:0800000000500020110000086F
:04000800F8B500BF88
:04000C00F8B500BF84
:1000100080B500AF0F4B1B680E4A43F0100313600E
:100020000D4B1B680C4A43F4801313600B4B1B6889
:100030000A4A43F400531360094800F015F8094BCD
:100040001B68084A43F400531360054800F00CF89D
:10005000ECE700BF181002400410014010100140EE
:0800600040420F0014100140A2
:1000680080B483B000AF786000BF7B685A1E7A60A6
:10007800002BFAD100BF00BF0C37BD4680BC7047CB
:0400000508000011DE
:00000001FF
