:020000040800F2
:080000000010002011000008AF
:04000800F8B5C04641
:04000C00F8B5C0463D
:1000100080B584B000AF3B1D1E4A116819609288FC
:100020009A801D4B1A681C4B802189020A431A6072
:100030009023DB051A689023DB05A0210A431A6090
:10004000164B1A68154B882149010A431A60144B54
:100050001A68134B8021C9010A431A60114B124AD6
:100060001A60124B09221A600023FB600EE0C046A2
:100070000F4B1B6880221340FAD03A1DFB68D3183F
:100080001A780C4B1A60FB680133FB60FB68042B89
:10009000EDDDFEE7B8000008141002402000004823
:1000A000181002400C3801404103000000380140A4
:0800B0001C3801402838014012
:0600B80048656C6C6F004E
:0400000508000011DE
:00000001FF
