:020000040800F2
:080000000010002011000008AF
:04000800F8B5C04641
:04000C00F8B5C0463D
:1000100080B500AF1B4B1A681A4B802189020A4336
:100020001A609023DB051A689023DB05A021890361
:100030000A431A60144B1A68134B882149000A437B
:100040001A60124B1A68114B8021C9010A431A60C9
:100050000F4B104A1A60104B1A680F4B01210A43CC
:100060001A600D4B1A680C4B08210A431A60C046EF
:100070000A4B1B6880221340FAD0094B68221A6091
:10008000FEE7C04614100240240000481810024049
:100090000C38014088130000003801401C38014032
:0400A00028380140BB
:0400000508000011DE
:00000001FF
