:020000040800F2
:080000000010002011000008AF
:04000800F8B5C04641
:04000C00F8B5C0463D
:1000100080B500AF124B1A68114B802189020A4348
:100020001A609023DB051A689023DB0580214900C4
:100030000A431A600B4B1A680A4B10210A431A60D4
:10004000094B180000F014F8084B1A68074B1021F0
:100050000A431A60044B180000F00AF8EAE7C046A9
:10006000141002401800004840420F0028000048C9
:1000700080B582B000AF7860C0467B685A1E7A6057
:0E008000002BFAD1C046C046BD4602B080BD7E
:0400000508000011DE
:00000001FF
