:020000040800F2
:1000000000100020E50000080000000000000000D3
:1000100000000000000000000000000000000000E0
:1000200000000000000000000000000000000000D0
:1000300000000000000000000000000000000000C0
:1000400000000000000000000000000000000000B0
:1000500000000000C9000008CF00000800000000F8
:100060000000000000000000000000000000000090
:100070000000000000000000000000000000000080
:100080000000000000000000000000000000000070
:100090000000000000000000000000000000000060
:1000A000000000000000000000000000D90000086F
:1000B0000000000000000000000000000000000040
:0400C000F8B5C04689
:0400C400F8B5C04685
:0600C80080B500AFFEE769
:0A00CE0080B500AFC046BD4680BDFE
:0A00D80080B500AFC046BD4680BDF4
:1000E40080B500AF2B4B1A682A4B802189020A4342
:1000F4001A609023DB051A689023DB0580214900F0
:100104000A431A60244B1A68234B04210A431A60D9
:10011400224B1A68214B01210A431A60204B1A68AA
:100124001F4B02210A431A601E4B1A681D4B022101
:100134000A431A601C4B1A681B4B20210A431A609D
:100144001A4B1B4A1A60194B1A4A1A601A4B062298
:100154001A601A4B9C2252001A60C046184B1B6846
:10016400002BFBD1174B1A68164B10210A431A6057
:10017400154B180000F02EF8144B1A68134B10217D
:100184000A431A60104B180000F024F8074B104A79
:100194001A60E7E7141002400C00004818100240EF
:1001A400000401400C04014000E100E00030004084
:1001B400CCCC00005555000004300040083000400D
:1001C4000C3000401800004820A107002800004817
:0401D400AAAA0000D3
:1001D80080B582B000AF7860C0467B685A1E7A60EE
:0E01E800002BFAD1C046C046BD4602B080BD15
:04000005080000E50A
:00000001FF
