:020000040800F2
:1000000000100020BD0000080000000000000000FB
:1000100000000000000000000000000000000000E0
:1000200000000000000000000000000000000000D0
:1000300000000000000000000000000000000000C0
:1000400000000000000000000000000000000000B0
:0C0050000000000065000008910000089E
:04005C00F8B5C046ED
:04006000F8B5C046E9
:1000640080B500AF074B1A68064B02210A431A6099
:10007400054B1A68044B10210A431A60C046BD465A
:0C00840080BDC046140401401800004874
:1000900080B500AF074B1A68064B04210A431A606B
:1000A000054B1A68044B10210A431A60C046BD462E
:0C00B00080BDC046140401402800004838
:1000BC0080B584B000AF3B1D204A1168196092884E
:1000CC009A801F4B1A681E4B802189020A431A60C2
:1000DC009023DB051A689023DB05A0210A431A60E4
:1000EC00184B1A68174B882149010A431A60164BA2
:1000FC001A68154B8021C9010A431A60134B144A24
:10010C001A60144B09221A600023FB600EE0C046F3
:10011C00114B1B6880221340FAD03A1DFB68D31890
:10012C001A780E4B1A60FB680133FB60FB68042BDA
:10013C00EDDD00231800BD4604B080BD6C01000845
:10014C001410024020000048181002400C380140E6
:10015C0041030000003801401C38014028380140A0
:06016C0048656C6C6F0099
:04000005080000BD32
:00000001FF
