:020000040800F2
:1000000000100020BD0000080000000000000000FB
:1000100000000000000000000000000000000000E0
:1000200000000000000000000000000000000000D0
:1000300000000000000000000000000000000000C0
:1000400000000000000000000000000000000000B0
:0C0050000000000065000008910000089E
:04005C00F8B5C046ED
:04006000F8B5C046E9
:1000640080B500AF074B1A68064B02210A431A6099
:10007400054B1A68044B10210A431A60C046BD465A
:0C00840080BDC046140401401800004874
:1000900080B500AF074B1A68064B04210A431A606B
:1000A000054B1A68044B10210A431A60C046BD462E
:0C00B00080BDC046140401402800004838
:1000BC0080B584B000AF3B1D2B4A11681960928843
:1000CC009A800B23FB1800221A70284B1A68274BB6
:1000DC00802189020A431A609023DB051A68902359
:1000EC00DB05A0210A431A60214B1A68204B88219A
:1000FC0049010A431A601F4B1A681E4B8021C90123
:10010C000A431A601C4B1D4A1A601D4B0D221A60C3
:10011C000023FB600EE0C0461A4B1B688022134084
:10012C00FAD03A1DFB68D3181A78174B1A60FB6883
:10013C000133FB60FB68042BEDDD124B1B682022A6
:10014C001340FAD0114B1A680B23FB181A70C046D7
:10015C000C4B1B6880221340FAD00B4B0B22BA18A5
:10016C0012781A60E9E7C0469C010008141002409E
:10017C0020000048181002400C38014041030000D8
:10018C00003801401C380140283801402438014017
:06019C0048656C6C6F0069
:04000005080000BD32
:00000001FF
