:020000040800F2
:080000000010002011000008AF
:04000800F8B5C04641
:04000C00F8B5C0463D
:1000100080B500AF0F4B1A680E4B802189020A434E
:100020001A609023DB051A689023DB0580214900C4
:100030000A431A60084B10221A60084B180000F09F
:1000400011F8074B10221A60044B180000F00AF850
:10005000F0E7C046141002401800004840420F006C
:04006000280000482C
:1000640080B582B000AF7860C0467B685A1E7A6063
:0E007400002BFAD1C046C046BD4602B080BD8A
:0400000508000011DE
:00000001FF
