:020000040800F2
:10000000001000205D01000800000000000000005A
:1000100000000000000000000000000000000000E0
:1000200000000000000000000000000000000000D0
:1000300000000000000000000000000000000000C0
:1000400000000000000000000000000000000000B0
:1000500000000000C9000008F500000800000000D2
:100060000000000000000000000000000000000090
:100070000000000000000000000000000000000080
:100080000000000000000000000000000000000070
:100090000000000000000000000000000000000060
:1000A0000000000000000000000000002101000826
:1000B0000000000000000000000000000000000040
:0400C000F8B5C04689
:0400C400F8B5C04685
:1000C80080B500AF074B1A68064B02210A431A6035
:1000D800054B1A68044B10210A431A60C046BD46F6
:0C00E80080BDC046140401401800004810
:1000F40080B500AF074B1A68064B04210A431A6007
:10010400054B1A68044B10210A431A60C046BD46C9
:0C01140080BDC0461404014028000048D3
:1001200080B582B000AFFB1D00221A70084B1A6820
:10013000FB1D1A70C046074B1B6880221340FAD083
:10014000054BFA1D12781A60C046BD4602B080BD4C
:0C015000243801401C38014028380140D0
:10015C0080B584B000AF3B1D264A116819609288A7
:10016C009A80254B1A68244B802189020A431A6015
:10017C009023DB051A689023DB05A0210A431A6043
:10018C001E4B1A681D4B882149010A431A601C4BEF
:10019C001A681B4B8021C9010A431A60194B1A4A71
:1001AC001A601A4B1A68194B0D210A431A60174B27
:1001BC001A68164B20210A431A60154B1A68144B07
:1001CC00802109050A431A600023FB600EE0C0463B
:1001DC00104B1B6880221340FAD03A1DFB68D318D1
:1001EC001A780D4B1A60FB680133FB60FB68042B1B
:1001FC00EDDDFEE728020008141002402000004844
:10020C00181002400C380140410300000038014036
:0C021C0000E100E01C38014028380140DF
:0602280048656C6C6F00DC
:040000050800015D91
:00000001FF
